:04000000C9EF3EF016
:107C8A000001FC6F380E00010001FD6F0001FC517C
:107C9A0064EC3EF00001FC6F010E00010001FD6F73
:107CAA000001FC5164EC3EF00001FC6F0F0E000174
:107CBA000001FD6F0001FC5164EC3EF0120083905C
:107CCA00FDC08BFF8382000E00010001FE6F000ED3
:107CDA000001FF6F00010001FF51800A7D0FE90ECC
:107CEA00D8B4FE5DD8A001D001D001D010D00001D7
:107CFA000001FE4BFF2B00010001FF51800A7D0F9E
:107D0A00E90ED8B4FE5DD8A001D001D0F0D7839295
:107D1A0012008380FCC08BFF8382000E00010001E9
:107D2A00FD6F000E0001FE6F00010001FE51800A86
:107D3A007D0FE90ED8B4FD5DD8A001D001D001D0E5
:107D4A0010D000010001FD4BFE2B00010001FE5185
:107D5A00800A7D0FE90ED8B4FD5DD8A001D001D00C
:107D6A00F0D7839200D081A001D001D0FCD781A2A4
:107D7A0001D001D0F8D781A401D001D0F4D781A6CF
:107D8A0001D001D0F0D712000001F96F0F0EC16EB9
:107D9A000001F9510F0E936E000E946E000E956E4F
:107DAA00000E8B6E45EC3EF0E00E8A6E2CD0000180
:107DBA00F96F610E00010001FC6F0001F9518EECB0
:107DCA003EF03BD00001F96F620E00010001FC6F2A
:107DDA000001F9518EEC3EF030D00001F96F630ECC
:107DEA0000010001FC6F0001F9518EEC3EF025D034
:107DFA000001F96F640E00010001FC6F0001F951E6
:107E0A008EEC3EF01AD081CFF9F00F0E0001F9176F
:107E1A00F9C0FAF00001FB6B0BD00001FA51070A16
:107E2A00E7E00C0ACFE0060AD8E0030AC0E005D072
:107E3A000001FB51000AF1E000D0D00E8A6E2CD06E
:107E4A000001F96F650E00010001FC6F0001F95194
:107E5A008EEC3EF03BD00001F96F660E0001000186
:107E6A00FC6F0001F9518EEC3EF030D00001F96F41
:107E7A00670E00010001FC6F0001F9518EEC3EF023
:107E8A0025D00001F96F680E00010001FC6F0001A6
:107E9A00F9518EEC3EF01AD081CFF9F00F0E0001A5
:107EAA00F917F9C0FAF00001FB6B0BD00001FA5187
:107EBA00070AE7E00C0ACFE0060AD8E0030AC0E0A6
:107ECA0005D00001FB51000AF1E000D0B00E8A6E25
:107EDA002CD00001F96F690E00010001FC6F00014E
:107EEA00F9518EEC3EF03BD00001F96F6A0E0001A9
:107EFA000001FC6F0001F9518EEC3EF030D0000118
:107F0A00F96F6B0E00010001FC6F0001F9518EEC54
:107F1A003EF025D00001F96F6C0E00010001FC6FE4
:107F2A000001F9518EEC3EF01AD081CFF9F00F0E14
:107F3A000001F917F9C0FAF00001FB6B0BD0000140
:107F4A00FA51070AE7E00C0ACFE0060AD8E0030A6A
:107F5A00C0E005D00001FB51000AF1E000D0700E2C
:107F6A008A6E2CD00001F96F6D0E00010001FC6FC2
:107F7A000001F9518EEC3EF03BD00001F96F6E0E14
:107F8A0000010001FC6F0001F9518EEC3EF030D087
:107F9A000001F96F6F0E00010001FC6F0001F95139
:107FAA008EEC3EF025D00001F96F700E0001000141
:107FBA00FC6F0001F9518EEC3EF01AD081CFF9F036
:107FCA000F0E0001F917F9C0FAF00001FB6B0BD094
:107FDA000001FA51070AE7E00C0ACFE0060AD8E0E6
:107FEA00030AC0E005D00001FB51000AF1E000D00D
:067FFA00DBD600EF00F0F1
:00000001FF
